{
  "_format": "hh-sol-artifact-1",
  "contractName": "Storage",
  "sourceName": "contracts/Storage.sol",
  "abi": [
    {
      "inputs": [],
      "name": "retrieve",
      "outputs": [
        {
          "internalType": "uint256",
          "name": "",
          "type": "uint256"
        }
      ],
      "stateMutability": "view",
      "type": "function"
    },
    {
      "inputs": [
        {
          "internalType": "uint256",
          "name": "num",
          "type": "uint256"
        }
      ],
      "name": "store",
      "outputs": [],
      "stateMutability": "nonpayable",
      "type": "function"
    }
  ],
  "bytecode": "0x6080604052348015600f57600080fd5b506103ad8061001f6000396000f3fe608060405234801561001057600080fd5b50600436106100365760003560e01c80632e64cec11461003b5780636057361d14610059575b600080fd5b610043610075565b604051610050919061020f565b60405180910390f35b610073600480360381019061006e919061025b565b61007e565b005b60008054905090565b6100bf6040518060400160405280600f81526020017f6e756d626572206176616e74203a20000000000000000000000000000000000081525060005461010a565b806000819055506101076040518060400160405280600f81526020017f6e756d626572206170726573203a20000000000000000000000000000000000081525060005461010a565b50565b6101a28282604051602401610120929190610318565b6040516020818303038152906040527fb60e72cc000000000000000000000000000000000000000000000000000000007bffffffffffffffffffffffffffffffffffffffffffffffffffffffff19166020820180517bffffffffffffffffffffffffffffffffffffffffffffffffffffffff83818316178352505050506101a6565b5050565b6101bd816101b56101c06101e1565b63ffffffff16565b50565b60006a636f6e736f6c652e6c6f679050600080835160208501845afa505050565b6101ec819050919050565b6101f4610348565b565b6000819050919050565b610209816101f6565b82525050565b60006020820190506102246000830184610200565b92915050565b600080fd5b610238816101f6565b811461024357600080fd5b50565b6000813590506102558161022f565b92915050565b6000602082840312156102715761027061022a565b5b600061027f84828501610246565b91505092915050565b600081519050919050565b600082825260208201905092915050565b60005b838110156102c25780820151818401526020810190506102a7565b60008484015250505050565b6000601f19601f8301169050919050565b60006102ea82610288565b6102f48185610293565b93506103048185602086016102a4565b61030d816102ce565b840191505092915050565b6000604082019050818103600083015261033281856102df565b90506103416020830184610200565b9392505050565b7f4e487b7100000000000000000000000000000000000000000000000000000000600052605160045260246000fdfea26469706673582212206705e3a5c8600e94b96ea12ee9f235d482b2a40ee13a19657f58790ea1ea723164736f6c634300081b0033",
  "linkReferences": {},
  "deployedLinkReferences": {}
}